:020000040800F2
:100000000050002021010008E5090008E909000866
:10001000ED090008F1090008F509000800000000DA
:10002000000000000000000000000000F9090008C6
:10003000FD09000800000000010A0008D1090008BD
:1000400065010008650100086501000865010008F8
:1000500065010008650100086501000865010008E8
:1000600065010008650100086501000865010008D8
:1000700065010008650100086501000865010008C8
:10008000650100086501000865010008050A00080F
:10009000910A000865010008650100086501000873
:1000A0006501000865010008650100086501000898
:1000B0006501000865010008650100086501000888
:1000C0006501000865010008650100086501000878
:1000D0006501000865010008650100086501000868
:1000E00065010008650100083112000800000000E9
:1000F0000000000000000000000000000000000000
:0C01000000000000000000005FF808F1A3
:10010C00401B000800000020C0000020C0000020A0
:10011C00B4020020002103E00A4B5B584350043129
:10012C0009480A4B42189A42F6D3094A02E00023C6
:10013C0042F8043B074B9A42F9D301F07BF801F0EB
:10014C00F9F87047401B000800000020C000002098
:10015C00C0000020B4020020FEE7000008B5002813
:10016C0034D000201D4A516810800B7813F07F03A7
:10017C0016D0012B2FD0022B22D1497901F00F037D
:10018C009B0003F1804303F5B84309061B6818D4A0
:10019C0003F44053B3F5805F0ED1012313700BE0D1
:1001AC00497A11F0200318BF022348064CBF43F0D4
:1001BC00010323F00103137093681B6998470748E8
:1001CC0008BD03F03003102BF6D1E6E70222034BF7
:1001DC005B681A8208BD104608BD00BFC000002035
:1001EC0038B110B5054CA3681B68984760680A3095
:1001FC0010BD0122014B5B681A827047C0000020C1
:10020C0038B110B5054CA3689B68984760680C30F2
:10021C0010BD0122014B5B681A827047C0000020A0
:10022C000122014B1A737047C00000200122014BC0
:10023C001A70704700000020034B5A68927A0AB17A
:10024C0005221A61704700BFC00000200422014B38
:10025C001A617047C0000020704700BF704700BF94
:10026C0008B1034870470222024B5B681A82704740
:10027C00D4000020C0000020134A5368197801F004
:10028C007F0CBCF1400F15D1090613D5052813D0EE
:10029C00902815D19988C90901F07E0150180146A2
:1002AC00407E097E50751175022208490020996123
:1002BC001A6170470220704746F201019182F3E700
:1002CC0000219182F0E700BFC00000206D02000801
:1002DC00044B5B681B7803F07F03402B14BF022098
:1002EC0000207047C0000020064B5B685A8A18B18A
:1002FC00054B586810447047034909898A1A1A82B9
:10030C00704700BFC000002000000020064B5B6857
:10031C005A8A18B1054BD868104470470349098AAA
:10032C008A1A1A82704700BFC0000020000000200B
:10033C000B4B5B68DA78042A07D8598A38B1094B19
:10034C0003EBC2025069084470470020704710B498
:10035C00044C04EBC202128B10BC511A1982704768
:10036C00C00000200000002021B9002814BF02208A
:10037C0000207047022070472DE9F041334E74681D
:10038C00258A002D41D194F80880B8F1040F44D08F
:10039C004FF00408A38A9D4228BF1D46AFB2A36943
:1003AC00384698472A4BD3F8503C9BB203F1005384
:1003BC0003F540535B001A886B1C02F1005202F5E6
:1003CC0040525B104FEA420205D030F8021B013B51
:1003DC0022F8041BF9D130204FF440511C4BD3F8B8
:1003EC00502C1C4B92B213445B001D60238AA6F860
:1003FC009A00DB1B2382638AA6F89C101F44678239
:10040C00746884F80880BDE8F081A38A9D4294BF8B
:10041C004FF004084FF00208BDE796F89830012B16
:10042C0005D010234FF00708A6F89A30E9E73021E1
:10043C00074B86F89850D3F8502C064B92B21344C5
:10044C005B001D60A6F89A10DBE700BFC00000201F
:10045C000050004002300020704700BF0D4A0E4B88
:10046C00D2F8502C3E2892B213444FEA43030AD9D7
:10047C004209C00604BF02F1FF3292B2920242F46A
:10048C0000421A6070474208C10748BF013292020D
:10049C001A60704700500040063000202DE9F047EC
:1004AC0000234FF0800A4FF0200C48F280056021A9
:1004BC008B4E40F60F628B4CD6F804E0DFF82882A6
:1004CC00AEF80A308EF809A0C4F8503CD4F8003CC1
:1004DC00DFF8189203EA080343F400739BB2C4F8E4
:1004EC00003CD4F8003C824803EA09039BB283EA3F
:1004FC000C032B43C4F8003CD4F8503C7D4F9BB20A
:10050C0018444000C0F800C0D4F8503C9BB203F132
:10051C00005303F540535B001960D4F8003C1A40BB
:10052C002A43C4F8002C97F86000FFF797FFA0202F
:10053C004023D4F8002C7049DFF8C0C10A4092B2B5
:10054C0082F440522A43C4F8002CD4F8042C02EA5A
:10055C00080292B2C4F8042CD4F8502C1FFA82FE74
:10056C00F4444FEA4C0CCCF80000D4F8500C40F694
:10057C000F721FFA80FC62486044400003604FF425
:10058C008070D4F8043C4FF4A07C03EA09039BB2BE
:10059C0083F020032B43C4F8043CD4F8043C1940EA
:1005AC00294389B2C4F8041C4FF40441D4F8083C24
:1005BC0003EA08081FFA88F3C4F8083CD4F8083C8E
:1005CC00034313401D43C4F8085CD4F8505C4D4BF6
:1005DC00ADB22B445B001860D4F8500C4A4B80B27F
:1005EC0003445B00C3F800C0D4F8500C474B80B2F6
:1005FC0003445B001960D4F8500C454B80B20344A3
:10060C005B001960D4F8083C590408D5D4F8083CB0
:10061C001A4042F4404242EA0A02C4F8082C314A19
:10062C00D2F8083C5B060AD540F60F71D2F8083CAC
:10063C000B4043F4004343F0C003C2F8083C40F6BF
:10064C000F7597F8600048F28007264CDFF8A880F9
:10065C00D4F8083C2B4043F4004343F0C003C4F8E7
:10066C00083CD4F8082C02EA080292B282F44052F8
:10067C003A43C4F8082CD4F8082C22F4E04222F0B7
:10068C0040023A4392B2C4F8082CFFF7E7FE8021EF
:10069C000122D4F8003C03EA08039BB283F44053D4
:1006AC003B43C4F8003CD4F8003C2B401F43C4F837
:1006BC00007CD4F8043C2B4043F4004343F081030A
:1006CC00C4F8043CD4F8083C1D4045F4004545F002
:1006DC008205C4F8085CC4F84C1C3261BDE8F08794
:1006EC00C0000020005000408F89FFFFBF8FFFFF2C
:1006FC0004300020000000208FBFFFFF08300020D6
:10070C000A3000201030002014300020123000205D
:10071C001630002070B5444C6368187810F07F00D8
:10072C0032D0022801D0022070BD5A88002AFBD199
:10073C001A79002AF8D15A7922F080064FEA860CF1
:10074C000CF1804101F5B841096852B2002AB4BFDE
:10075C0001F0300101F44051022EE5D80029E3D01C
:10076C009B7A002BE0D0002A13DB0CF1804505F5B9
:10077C00B8452B6803F44053B3F5805F32D0A368BF
:10078C005B699847002070BD5A7A22F020025A7299
:10079C0070BD0CF1804C0CF5B84CDCF8003003F05B
:1007AC003003102BEBD1DCF800305A060AD540F69A
:1007BC000F72DCF80030134043F4004343F0C003E5
:1007CC00CCF80030DCF8003023F4E04323F0400395
:1007DC009BB283F0300343F4004343F08003CCF826
:1007EC000030CCE796B9114B93F86000FFF736FE5A
:1007FC002B6823F4804323F070039BB283F44053A3
:10080C0043F4004343F080032B60B8E72B685B0490
:10081C00EED540F60F722B68134043F4404343F07F
:10082C0080032B60E4E700BFC00000200000002024
:10083C00564AF0B4D2F8E837D2F8EC17D2F8F027D1
:10084C000B449B1840F08B8000224FF404404FF473
:10085C00004C01264FF4E0554D4C4E4B676893F815
:10086C006410BA724C4B4D4F3E29A4F89E00C7F849
:10087C0010C0C3F8406CC3F8402CC3F8442CC3F828
:10088C00405CC3F8442CC3F8400C64D8BA2341F63E
:10089C00A200434D84F82A30A561424B424D20857D
:1008AC00C4E90753414B0E226362414884F82B1074
:1008BC0004F12C0304F13A0501E010F8012B03F8C4
:1008CC00012BAB42F9D118223A483B4D01E010F80C
:1008DC00012F03F8012BAB42F9D10E4651B1374829
:1008EC00421C084401E012F8011B904203F8011B62
:1008FC00F9D1AB190122032002259A7056225870A7
:10090C0045201D700021522642259A712C4A58719F
:10091C0003F108001E71D970DD71831A7D2B04DC84
:10092C0000F8011B831A7D2BFADD4AF6AA23244911
:10093C0001F17E0591F801C011F8022B42EA0C225C
:10094C005A40D30B43EA42038D421AB29BB2F1D107
:10095C001B0A0270437000232361F0BC7047002017
:10096C000546164AB3F1204F4FEA137101F13004DA
:10097C0000F102002ABF3731947091701028D570A5
:10098C004FEA031302F10202ECD15DE700F0FF1F06
:10099C00C000002000000020005000400008014072
:1009AC000000FB0980E11C00016000040002940EB1
:1009BC00A91A0008B81A00081201002064000020CF
:1009CC00D8000020034AD2F8A0300133C2F8A0307E
:1009DC00704700BFC0000020704700BFFEE700BF9B
:1009EC00FEE700BFFEE700BFFEE700BF704700BF99
:1009FC00704700BF704700BF2DE9F0411E4F1F4CE0
:100A0C00D7F8443C9AB21B04A4F8A42032D547F67C
:100A1C00FF7548F60F76DFF868800EE040F68F7CA5
:100A2C001A68416A02EA0C021A608847D7F8443CFB
:100A3C009AB21B04A4F8A4201CD5C7F8445CB4F8E3
:100A4C00A42002F00F02930003F1804303F5B84396
:100A5C00196808EB820011F4004F84F8A620DDD150
:100A6C00090608EB8202E1D51968106C3140196057
:100A7C008047DBE7BDE8F08100500040C00000205B
:100A8C00A81A0008F0B5B34FB34CD7F8442CB4F8FF
:100A9C009E3092B2A4F8A420B4F8A42083B01A40DB
:100AAC00110411D4B4F8A42013405B050AD54FF6F9
:100ABC00FF31AA4BA74A9B6BC2F8441C03B0BDE89C
:100ACC00F040184703B0F0BD0022ADF80220D7F873
:100ADC00442C91B21204A4F8A410E3D548F60F7676
:100AEC009F4D38E04BF6BF7C48F28001D7F8002CC4
:100AFC0092B2A4F89C20B4F89C2002F03002A4F826
:100B0C009A20B4F89C2002F44052A4F89C20D7F808
:100B1C00003C03EA0C0383F4005383F020030B43E3
:100B2C00C7F8003CB4F8A430DB0648D5D7F8003C35
:100B3C009BB2ADF80230BDF802301A0563D4BDF893
:100B4C0002301B0400F1A080D7F8443C9AB2A4F800
:100B5C00A4201A0430D5B4F8A40000F00F008300D0
:100B6C0003F1804303F5B84384F8A6000028B9D0FC
:100B7C001A6805EB800092B2ADF80220BDF8022095
:100B8C00120406D5416A40F68F701A6802401A604A
:100B9C008847BDF802301906D6D594F8A6209300E4
:100BAC0003F1804303F5B843196805EB8202314029
:100BBC00126C19609047C7E7B4F89E3072E748F69C
:100BCC000F72D7F8003C65681340C7F8003C2B7ACD
:100BDC00022B00F0B980042B00F0B680062B00F03D
:100BEC00898108225D4B2A7293F86000FFF736FC6E
:100BFC002B7A082B68D14FF480521023A4F89C2038
:100C0C00A4F89A3060E040F68F72D7F8003C656823
:100C1C001340C7F8003C2B7AD7F8502C092B7CD109
:100C2C00EB886E7801222A72002B40F09F802B7883
:100C3C0013F07F0340F0CD80092E00F03182052E99
:100C4C0000F0F781032E00F04C82012E00F0708230
:100C5C00D4F8A83030465B699847032800F0B78178
:100C6C00002840F082813B4A3E4BD2F8502C0020A9
:100C7C0092B23021134406225B0065681860A4F818
:100C8C009A102A72354BAFE740F68F72D7F8003CBA
:100C9C0065681340C7F8003C2B7A022B0AD0042B52
:100CAC0008D0032B00F0D780052B00F0D480072B45
:100CBC0000F086810823294A2B7292F86000FFF716
:100CCC00CDFB2B7A082B96D04BF6BF71214BD3F86A
:100CDC00003CB4F89C200B40D604B4F89C2048BFD0
:100CEC0083F480539504B4F89A2048BF83F40053DE
:100CFC00D006B4F89A2048BF83F01003910648BF81
:100D0C0083F0200343F4004343F0800311499AB26B
:100D1C00B4F89E30C1F8002CC4E6134B92B21344C5
:100D2C005B001B885B0003F1804303F5C0431A781A
:100D3C002A705E786E709A8852BA6A801A8952BA92
:100D4C00AA809B89EB806DE7FFF716FB65682A7A12
:100D5C0048E700BF00500040C00000200000002009
:100D6C00A81A00080230002004300020062E00F0E3
:100D7C00CC80002E40F0D8806B8833B96B6823F49C
:100D8C007F43B3F5003F00F0EC81D4F8A8301B6929
:100D9C009847032800F010814FF6FF7163681A8A98
:100DAC008A4200F0D28002280FD0002A00F0E080A6
:100DBC0093F900100029C0F20D8103214FF4405229
:100DCC0065681972A4F89C205CE71D4608221A720B
:100DDC0058E7012B00F0CE80022B7FF439AF012EA7
:100DEC0000F0B281032E7FF433AF697921F08000DB
:100DFC00830003F1804202F5B842126849B200291F
:100E0C00B4BF02F0300202F4405202283FF620AF89
:100E1C00688800287FF41CAF002A3FF419AFAA7A27
:100E2C00002A3FF415AF03F1804303F5B8430029C2
:100E3C001A68C0F2E88122F4804222F0700292B269
:100E4C0082F4805242F4004242F080021A60A3689D
:100E5C009B69984707E7AB69B5F810C0002B00F009
:100E6C00F680BCF1000F74D0AE8A664528BF66468A
:100E7C00B7B238469847A94B711CD3F8502CA84BE5
:100E8C0092B213445B001B882E8A6A8A03F10053CA
:100E9C00F61B03F540531FFA86FC3A4449104FEAFF
:100EAC004303A5F810C06A8208D01A68013903F10F
:100EBC00040320F8022BF8D1B5F810C06168BCF11E
:100ECC00000F47D04FF44057A88A00263025934A8C
:100EDC00A4F89C70D2F8502C924B92B213445B0045
:100EEC0060451E60A4F89A5038D905220D46134669
:100EFC000A72E0E66B78052B00F0AB80D4F8A830D2
:100F0C009B689847082265686CE62B785F0609D1C8
:100F1C00AB78012B00F01E81022B00F03381032BE8
:100F2C0000F02981062030E7082E64D12B785A0670
:100F3C0019D17D4B0020AB61688298474FF6FF7149
:100F4C0063681A8A8A427FF430AF09221D461A72EE
:100F5C0098E62946AB8A002B40F0B38003220D465D
:100F6C0013460A72A7E630460FE70822656888E642
:100F7C0065682BE70B2E7FF46BAED4F8A830E978BC
:100F8C009B69687998476368997A00293FF460AE49
:100F9C0000287FF45DAE1A79002A7FF459AE9B7855
:100FAC00002B7FF455AEA368DB68984763685979CA
:100FBC00DA78D9721A7356E6092365682B7261E6E2
:100FCC00D4F8A830DB6898470823656873E60922D3
:100FDC00656856E6D98801910198824240F2918069
:100FEC00019A1A82D4F8A82092F82C209A82FFF742
:100FFC00C3F9656846E60A2EB5D12B7803F07F035A
:10100C00012BB0D1AB7A002BADD069880029AAD1C5
:10101C006B6823F47F43B3F5803FA4D1D4F8A83098
:10102C0068799B699847002840F0C28065683F4BFF
:10103C0080E795F90330002B07DBAB782BB9AB8835
:10104C001BB9AB7A002B3FF40EAE082219E62946E9
:10105C0035E72B7858067FF451AFE87840F60F75DA
:10106C00D7F8003CA2682B401943126AC7F8001C41
:10107C00D7F8043C40F080002B4043F4004343F08D
:10108C008103C7F8043CD7F8083C2B4043F40043D9
:10109C0043F08203C7F8083CC7F84C0C90472DE787
:1010AC00EB7893423FF6D4ADAA78002A7FF4D0AD0A
:1010BC00AA88002A7FF4CCADA268AB72536898471B
:1010CC00D1E5062300263020144F0B720D46D7F8BD
:1010DC00501C144A89B20A4452001660A4F89A00B3
:1010EC00E9E5EB78012B7FF4B3ADAB88002B7FF4F3
:1010FC00AFAD6B7AA26843F020036B72D36998474B
:10110C00B1E591427FF66EAFD4F8A81091F82C108F
:10111C00914250D9002284F8982063E70050004097
:10112C000430002002300020ED0100080D02000800
:10113C00EB78012B7FF48CADAB88002B7FF488AD62
:10114C006B7A9B067FF584ADFFF7E4FA00283FF439
:10115C008AAD7DE5D4F8A830DB69002B3FF4E2AE14
:10116C00E8E62B7813F07F0313D1AB88002B7FF4C8
:10117C00FAAE2B4BDEE6D4F8A8305B6A002B3FF4BA
:10118C00D1AED7E6D4F8A8301B6A002B3FF4CAAE18
:10119C00D0E6012B1AD1D4F8A83031469B69687976
:1011AC00984728B96568AB7A002BE2D16878ECE5F2
:1011BC0063685878E9E5B2FBF1F001FB1022002AD4
:1011CC007FF410AF012284F898200BE7022B7FF4F8
:1011DC00DCAD6A7902F00F018B0003F1804303F55B
:1011EC00B8431B6816064CBF03F0300303F440539E
:1011FC0002293FF6CAAD12F0700F7FF4C6AD002B7A
:10120C00B7D11846C1E522F4E04222F0400292B276
:10121C0082F0100242F4004242F080021A6016E69C
:10122C00690100084FF48022014B5A61704700BFDE
:10123C000004014010B400204FF41F04394A3A4B0B
:10124C00116883B041F00101116051680B4053608B
:10125C00136823F0847323F480331360136823F42E
:10126C0080231360536823F4FE0353609460009052
:10127C000190136843F48033136003E0009BB3F5D3
:10128C00A06F09D0136803F400330193009B013362
:10129C000093019B002BF1D0224B1B6813F40033FD
:1012AC0018BF01230193019B012B06D04FF0006264
:1012BC001E4B9A6003B010BC70471D4A194B116845
:1012CC0041F010011160116821F0030111601168E7
:1012DC0041F0020111605A685A605A685A605A68A3
:1012EC0042F480625A605A6822F47C125A605A683E
:1012FC0042F4E8125A601A6842F080721A601A6856
:10130C009201FCD55968074A21F0030159605968CC
:10131C0041F002015960536803F00C03082BFAD119
:10132C00C4E700BF001002400000FFF800ED00E031
:10133C0000200240BA4D2DE98048AA690023B94922
:10134C004FF0E020072642F00102F027AA614A681C
:10135C004C6822F0706224F070644C60012442F0FE
:10136C0000724A60B04AB149072B416182F8237080
:10137C008361066182F82330AA6901F1804142F051
:10138C001002AA61A1F63F1103F109024FF00F06FA
:10139C004FF00205496887B004FA02F203F101002C
:1013AC000CD032F4005300F06C82034603F10902B6
:1013BC00072B04FA02F203F10100F2D14FF40055AD
:1013CC0046F2010600230122994C9A484160A4F888
:1013DC00EC604561D4F8A010C4E95133C4F82C1169
:1013EC009549237384F840210A7084F83031C4F88D
:1013FC00343184F83831C4F83C3104F24B1204F225
:10140C005B1102F8013F9142FBD1C4E95533844A88
:10141C008A489369402143F00803C4F84C010F2615
:10142C00936101200023A2F582321268C4F8501196
:10143C000133082B00FA03F110D031F06801F7D119
:10144C00990006FA01F5013300FA01F122EA0502CE
:10145C00082B42EA010200FA03F1EED1784F012584
:10146C003A604FF00F0C002239680132082A05FA55
:10147C0002F011D030F01006F7D1386190000CFA60
:10148C0000F6013203FA00F021EA0601082A41EACB
:10149C00000105FA02F0EDD1694B614A19609369BC
:1014AC00012543F0040393610023664903F109020B
:1014BC00072B4FF00F074FF00206496805FA02F2AE
:1014CC0003F101000CD032F4004300F0E481034638
:1014DC0003F10902072B05FA02F203F10100F2D124
:1014EC00584B514F5960584B4FF00208FB60FB684A
:1014FC004FF4801ADB43C3F30223C3F104035348B4
:10150C0008FA03F352491B01C4F8A800DBB24430BB
:10151C00A06081F81433C1F800A0F8680125C0431D
:10152C004FF4802B4FF48069C0F30220C0F104000B
:10153C0005FA00F0474A0026474F3F4B0001C0B266
:10154C005B6B676081F82A03C1F80490C2F814B091
:10155C001168DFF8D0E021F4802111605168DFF8C8
:10156C00C0C021F4802151609DF81410B24601F1E5
:10157C00804101F58231086840EA0B00086084F86C
:10158C00A481916821F480219160D16821F480219B
:10159C00D160DEF8082442EA0B02CEF808242F4A68
:1015AC00DFF8BCB0C2F8D860DCF81C2042F40002B2
:1015BC00CCF81C209847A7F1B00303934FF47A732F
:1015CC00A4F8B8316423A4F8BA314FF40053D4F81A
:1015DC00A000184A84F83051A4F8BC61A4F8BE618C
:1015EC00C4F82C01536132461E4B00264FF40057B1
:1015FC00012D00F0C08121690529F9D10EB1C4F883
:10160C002C01217B002900F0D281D4E951018142C7
:10161C0000F0D081884240F2BF8001253AE000BF43
:10162C00001002400000014000ED00E03F190100F5
:10163C00C000002000100140000000201C0200200F
:10164C00000C0140000801400005FA0534000020A0
:10165C0000E100E0000401405C0200200000424276
:10166C000000214200802142C1F3801011F0800F54
:10167C0084F8380101F0400000F0178101F03F01BF
:10168C00C4F83411D4E9510101318142C4F8481134
:10169C0080F08280D4E95570D4F85061381AB04289
:1016AC007AD0D4F83401214491F8AC100028DBD066
:1016BC0094F83801C3F89411002800F01581D3F880
:1016CC001001C3F88C51C00140EA5100C3F88C21C1
:1016DC00C3F89401D3F81011C3F88C51C90141EA35
:1016EC005000C3F88C21C3F89401D3F81011C3F83F
:1016FC008C51C90141EA5001C3F88C21C3F89411F3
:10170C00D3F81001C3F88C51C00140EA5101C3F861
:10171C008C21C3F89411D3F81001C3F88C51C0017B
:10172C0040EA5100C3F88C21C3F89401D3F810118E
:10173C00C3F88C51C90141EA5000C3F88C21C3F89D
:10174C009401D3F81011C3F88C51C90141EA50012E
:10175C00C3F88C21C3F89411D3F81001013EC001D9
:10176C0040EA5101D4F84C013E40C3F88C51C3F807
:10177C008C218155D4F854110131C4F85411D4F88A
:10178C0034110139C4F83411D4E9510101318142C9
:10179C00C4F84811FFF47EAFB649097800296BD024
:1017AC00D4E95591A9EB01073E2F00F23181002FAE
:1017BC0000F03681FE1CB81C7610CDF80890019014
:1017CC00D4F85051D4F8A000C4F83C01681E014074
:1017DC006D1ABD4228BF3D46D4F84C0165B1014499
:1017EC00DFF894C205EB010811F801EB88450CF801
:1017FC0001EFF9D17F1B0BD003990235013F074450
:10180C000D44013810F8011F874205F8011BF9D16E
:10181C000299494500F01981C4F858119548974927
:10182C000270D1F8500C964980B2014449000988E5
:10183C00944801F1005101F54051490030F8025B28
:10184C00013E21F8045BF9D18C488F49D0F8505CEB
:10185C00ADB22944019D49000D60D0F8041C21F45F
:10186C00E04121F0400189B281F0300141F40041A6
:10187C0041F08001C0F8041CD4F82C0194F83051CC
:10188C00B3E6830006FA03F221EA020105FA03F338
:10189C00194303468AE5830007FA03F221EA0201A1
:1018AC0006FA03F31943034612E6002852D0C1F39B
:1018BC000010C3F89401C1F34000C3F8980101F083
:1018CC000100C1F34011C3F88C01CBF8A011D3F87F
:1018DC001001D4F84C11013E3E408855D4F85411F7
:1018EC000131C4F85411CDE64E08C3F88C51C3F83D
:1018FC008C01C3F894618E08C3F88C51C3F88C0129
:10190C00C3F89461CE08C3F88C51C3F88C01C3F8AA
:10191C0094610E09C3F88C51C3F88C01C3F894611F
:10192C004E09C3F88C51C3F88C01C3F894618E092D
:10193C00C909C3F88C51C3F88C01C3F89461C3F87E
:10194C008C51C3F88C01C3F89411C3F88C51C3F8B3
:10195C008C0114E7C1F30010C3F89401C1F34000EB
:10196C00C3F8980101F00100C1F34011C3F88C01D8
:10197C00CBF8A01186E6D4F8A0108A44AAEB000A92
:10198C001FFA8AFABAF1630F0ED9DFF800C1BAF563
:10199C007A7F08462E46CCF81470FFF42CAE4FF02C
:1019AC00000ACCF8107026E608462E4623E6D4E949
:1019BC0051012FE63149D1F8080CD1F8501C4006E2
:1019CC0089B201F1005101F5405141D51231490064
:1019DC000868C0F30900451C6D1008D02C4F2D4E23
:1019EC003168013D06F1040627F8021BF8D140F6D8
:1019FC000F76224D2273D5F8081CC4E951023140F0
:101A0C0041F4004141F0C001C5F8081C002101E679
:101A1C0001F13E000290402020263E270190CFE6A7
:101A2C00D4F8A010D4F83C01091A092906D894F866
:101A3C00401100293FF420AF84F84071D4F8A01075
:101A4C000126C4F83C1102210191C4E95522E5E6B6
:101A5C00163149000868C0F30900451C6D10C6D04A
:101A6C000B4F0D4E3168013D06F1040627F8021BA1
:101A7C00F8D1BCE700000020AD0100200050004070
:101A8C0008300020AC0100200A300020001001407A
:101A9C006C01002000620040806200400E03410097
:101AAC006C007400650072006100000018035500A2
:101ABC00530042002D0042006C0061007300740062
:101ACC0065007200650400082D020008650400081A
:101ADC006504000865040008650400086504000836
:101AEC003902000865040008650400086504000854
:101AFC006504000865040008650400080403090473
:101B0C000902200001010080E10904000002FFFF2E
:101B1C00FF00070581024000010705020240000199
:101B2C001201000200000040FB09016000040102E8
:041B3C0003010000A1
:101B4000010000002C1B0008120000000C1B000804
:101B500020000000081B000804000000A81A00086C
:101B60000E000000B81A00081800000064000020F1
:101B7000120000003D080008A904000865020008E2
:101B80006902000885020008DD02000875030008EC
:101B9000F5020008190300083D03000800000000DA
:101BA00040000000120330003000300030003000F0
:101BB00030003000300000006504000845020008D5
:101BC0006504000865040008650400086504000851
:101BD00065040008650400085902000800000000C0
:101BE00000000000010203040607080900000000CD
:101BF000010203040102030406070809020406089F
:0400000508000121CD
:00000001FF
